{
  "_format": "hh-sol-artifact-1",
  "contractName": "AED",
  "sourceName": "contracts/AED.sol",
  "abi": [
    {
      "anonymous": false,
      "inputs": [
        {
          "indexed": false,
          "internalType": "address",
          "name": "previousAdmin",
          "type": "address"
        },
        {
          "indexed": false,
          "internalType": "address",
          "name": "newAdmin",
          "type": "address"
        }
      ],
      "name": "AdminChanged",
      "type": "event"
    },
    {
      "anonymous": false,
      "inputs": [
        {
          "indexed": true,
          "internalType": "address",
          "name": "owner",
          "type": "address"
        },
        {
          "indexed": true,
          "internalType": "address",
          "name": "approved",
          "type": "address"
        },
        {
          "indexed": true,
          "internalType": "uint256",
          "name": "tokenId",
          "type": "uint256"
        }
      ],
      "name": "Approval",
      "type": "event"
    },
    {
      "anonymous": false,
      "inputs": [
        {
          "indexed": true,
          "internalType": "address",
          "name": "owner",
          "type": "address"
        },
        {
          "indexed": true,
          "internalType": "address",
          "name": "operator",
          "type": "address"
        },
        {
          "indexed": false,
          "internalType": "bool",
          "name": "approved",
          "type": "bool"
        }
      ],
      "name": "ApprovalForAll",
      "type": "event"
    },
    {
      "anonymous": false,
      "inputs": [
        {
          "indexed": false,
          "internalType": "uint256",
          "name": "_fromTokenId",
          "type": "uint256"
        },
        {
          "indexed": false,
          "internalType": "uint256",
          "name": "_toTokenId",
          "type": "uint256"
        }
      ],
      "name": "BatchMetadataUpdate",
      "type": "event"
    },
    {
      "anonymous": false,
      "inputs": [
        {
          "indexed": true,
          "internalType": "address",
          "name": "beacon",
          "type": "address"
        }
      ],
      "name": "BeaconUpgraded",
      "type": "event"
    },
    {
      "anonymous": false,
      "inputs": [
        {
          "indexed": true,
          "internalType": "uint256",
          "name": "id",
          "type": "uint256"
        },
        {
          "indexed": false,
          "internalType": "uint256",
          "name": "dest",
          "type": "uint256"
        }
      ],
      "name": "BridgeInitiated",
      "type": "event"
    },
    {
      "anonymous": false,
      "inputs": [
        {
          "indexed": true,
          "internalType": "uint256",
          "name": "id",
          "type": "uint256"
        },
        {
          "indexed": false,
          "internalType": "string",
          "name": "full",
          "type": "string"
        }
      ],
      "name": "DomainRegistered",
      "type": "event"
    },
    {
      "anonymous": false,
      "inputs": [
        {
          "indexed": true,
          "internalType": "contract IERC20Upgradeable",
          "name": "token",
          "type": "address"
        },
        {
          "indexed": false,
          "internalType": "address",
          "name": "to",
          "type": "address"
        },
        {
          "indexed": false,
          "internalType": "uint256",
          "name": "amount",
          "type": "uint256"
        }
      ],
      "name": "ERC20PaymentReleased",
      "type": "event"
    },
    {
      "anonymous": false,
      "inputs": [
        {
          "indexed": false,
          "internalType": "uint8",
          "name": "version",
          "type": "uint8"
        }
      ],
      "name": "Initialized",
      "type": "event"
    },
    {
      "anonymous": false,
      "inputs": [
        {
          "indexed": false,
          "internalType": "uint256",
          "name": "_tokenId",
          "type": "uint256"
        }
      ],
      "name": "MetadataUpdate",
      "type": "event"
    },
    {
      "anonymous": false,
      "inputs": [
        {
          "indexed": false,
          "internalType": "address",
          "name": "account",
          "type": "address"
        }
      ],
      "name": "Paused",
      "type": "event"
    },
    {
      "anonymous": false,
      "inputs": [
        {
          "indexed": false,
          "internalType": "address",
          "name": "account",
          "type": "address"
        },
        {
          "indexed": false,
          "internalType": "uint256",
          "name": "shares",
          "type": "uint256"
        }
      ],
      "name": "PayeeAdded",
      "type": "event"
    },
    {
      "anonymous": false,
      "inputs": [
        {
          "indexed": false,
          "internalType": "address",
          "name": "from",
          "type": "address"
        },
        {
          "indexed": false,
          "internalType": "uint256",
          "name": "amount",
          "type": "uint256"
        }
      ],
      "name": "PaymentReceived",
      "type": "event"
    },
    {
      "anonymous": false,
      "inputs": [
        {
          "indexed": false,
          "internalType": "address",
          "name": "to",
          "type": "address"
        },
        {
          "indexed": false,
          "internalType": "uint256",
          "name": "amount",
          "type": "uint256"
        }
      ],
      "name": "PaymentReleased",
      "type": "event"
    },
    {
      "anonymous": false,
      "inputs": [
        {
          "indexed": true,
          "internalType": "uint256",
          "name": "id",
          "type": "uint256"
        }
      ],
      "name": "RecoveryStarted",
      "type": "event"
    },
    {
      "anonymous": false,
      "inputs": [
        {
          "indexed": true,
          "internalType": "uint256",
          "name": "id",
          "type": "uint256"
        },
        {
          "indexed": false,
          "internalType": "uint256",
          "name": "duration",
          "type": "uint256"
        }
      ],
      "name": "Renewed",
      "type": "event"
    },
    {
      "anonymous": false,
      "inputs": [
        {
          "indexed": true,
          "internalType": "bytes32",
          "name": "role",
          "type": "bytes32"
        },
        {
          "indexed": true,
          "internalType": "bytes32",
          "name": "previousAdminRole",
          "type": "bytes32"
        },
        {
          "indexed": true,
          "internalType": "bytes32",
          "name": "newAdminRole",
          "type": "bytes32"
        }
      ],
      "name": "RoleAdminChanged",
      "type": "event"
    },
    {
      "anonymous": false,
      "inputs": [
        {
          "indexed": true,
          "internalType": "bytes32",
          "name": "role",
          "type": "bytes32"
        },
        {
          "indexed": true,
          "internalType": "address",
          "name": "account",
          "type": "address"
        },
        {
          "indexed": true,
          "internalType": "address",
          "name": "sender",
          "type": "address"
        }
      ],
      "name": "RoleGranted",
      "type": "event"
    },
    {
      "anonymous": false,
      "inputs": [
        {
          "indexed": true,
          "internalType": "bytes32",
          "name": "role",
          "type": "bytes32"
        },
        {
          "indexed": true,
          "internalType": "address",
          "name": "account",
          "type": "address"
        },
        {
          "indexed": true,
          "internalType": "address",
          "name": "sender",
          "type": "address"
        }
      ],
      "name": "RoleRevoked",
      "type": "event"
    },
    {
      "anonymous": false,
      "inputs": [
        {
          "indexed": true,
          "internalType": "uint256",
          "name": "root",
          "type": "uint256"
        },
        {
          "indexed": true,
          "internalType": "uint256",
          "name": "sub",
          "type": "uint256"
        },
        {
          "indexed": false,
          "internalType": "string",
          "name": "full",
          "type": "string"
        }
      ],
      "name": "SubdomainCreated",
      "type": "event"
    },
    {
      "anonymous": false,
      "inputs": [
        {
          "indexed": true,
          "internalType": "address",
          "name": "from",
          "type": "address"
        },
        {
          "indexed": true,
          "internalType": "address",
          "name": "to",
          "type": "address"
        },
        {
          "indexed": true,
          "internalType": "uint256",
          "name": "tokenId",
          "type": "uint256"
        }
      ],
      "name": "Transfer",
      "type": "event"
    },
    {
      "anonymous": false,
      "inputs": [
        {
          "indexed": false,
          "internalType": "address",
          "name": "account",
          "type": "address"
        }
      ],
      "name": "Unpaused",
      "type": "event"
    },
    {
      "anonymous": false,
      "inputs": [
        {
          "indexed": true,
          "internalType": "address",
          "name": "implementation",
          "type": "address"
        }
      ],
      "name": "Upgraded",
      "type": "event"
    },
    {
      "inputs": [],
      "name": "ADMIN_ROLE",
      "outputs": [
        {
          "internalType": "bytes32",
          "name": "",
          "type": "bytes32"
        }
      ],
      "stateMutability": "view",
      "type": "function"
    },
    {
      "inputs": [],
      "name": "BRIDGE_MANAGER",
      "outputs": [
        {
          "internalType": "bytes32",
          "name": "",
          "type": "bytes32"
        }
      ],
      "stateMutability": "view",
      "type": "function"
    },
    {
      "inputs": [],
      "name": "DEFAULT_ADMIN_ROLE",
      "outputs": [
        {
          "internalType": "bytes32",
          "name": "",
          "type": "bytes32"
        }
      ],
      "stateMutability": "view",
      "type": "function"
    },
    {
      "inputs": [],
      "name": "FEATURE_PROFILE",
      "outputs": [
        {
          "internalType": "uint8",
          "name": "",
          "type": "uint8"
        }
      ],
      "stateMutability": "view",
      "type": "function"
    },
    {
      "inputs": [],
      "name": "FEATURE_REVERSE",
      "outputs": [
        {
          "internalType": "uint8",
          "name": "",
          "type": "uint8"
        }
      ],
      "stateMutability": "view",
      "type": "function"
    },
    {
      "inputs": [],
      "name": "FEATURE_SUBDOMAINS",
      "outputs": [
        {
          "internalType": "uint8",
          "name": "",
          "type": "uint8"
        }
      ],
      "stateMutability": "view",
      "type": "function"
    },
    {
      "inputs": [],
      "name": "UPGRADER_ROLE",
      "outputs": [
        {
          "internalType": "bytes32",
          "name": "",
          "type": "bytes32"
        }
      ],
      "stateMutability": "view",
      "type": "function"
    },
    {
      "inputs": [
        {
          "internalType": "uint256",
          "name": "id",
          "type": "uint256"
        },
        {
          "internalType": "address",
          "name": "account",
          "type": "address"
        }
      ],
      "name": "addGuardian",
      "outputs": [],
      "stateMutability": "nonpayable",
      "type": "function"
    },
    {
      "inputs": [
        {
          "internalType": "address",
          "name": "to",
          "type": "address"
        },
        {
          "internalType": "uint256",
          "name": "tokenId",
          "type": "uint256"
        }
      ],
      "name": "approve",
      "outputs": [],
      "stateMutability": "nonpayable",
      "type": "function"
    },
    {
      "inputs": [
        {
          "internalType": "address",
          "name": "owner",
          "type": "address"
        }
      ],
      "name": "balanceOf",
      "outputs": [
        {
          "internalType": "uint256",
          "name": "",
          "type": "uint256"
        }
      ],
      "stateMutability": "view",
      "type": "function"
    },
    {
      "inputs": [
        {
          "internalType": "uint256",
          "name": "id",
          "type": "uint256"
        },
        {
          "internalType": "uint256",
          "name": "dest",
          "type": "uint256"
        }
      ],
      "name": "bridgeDomain",
      "outputs": [],
      "stateMutability": "nonpayable",
      "type": "function"
    },
    {
      "inputs": [],
      "name": "clearReverseRecord",
      "outputs": [],
      "stateMutability": "nonpayable",
      "type": "function"
    },
    {
      "inputs": [
        {
          "internalType": "uint256",
          "name": "id",
          "type": "uint256"
        },
        {
          "internalType": "address",
          "name": "newOwner",
          "type": "address"
        }
      ],
      "name": "completeRecovery",
      "outputs": [],
      "stateMutability": "nonpayable",
      "type": "function"
    },
    {
      "inputs": [
        {
          "internalType": "uint256",
          "name": "",
          "type": "uint256"
        }
      ],
      "name": "domainFeatures",
      "outputs": [
        {
          "internalType": "uint8",
          "name": "",
          "type": "uint8"
        }
      ],
      "stateMutability": "view",
      "type": "function"
    },
    {
      "inputs": [],
      "name": "feeCollector",
      "outputs": [
        {
          "internalType": "address",
          "name": "",
          "type": "address"
        }
      ],
      "stateMutability": "view",
      "type": "function"
    },
    {
      "inputs": [
        {
          "internalType": "uint256",
          "name": "tokenId",
          "type": "uint256"
        }
      ],
      "name": "getApproved",
      "outputs": [
        {
          "internalType": "address",
          "name": "",
          "type": "address"
        }
      ],
      "stateMutability": "view",
      "type": "function"
    },
    {
      "inputs": [
        {
          "internalType": "uint256",
          "name": "id",
          "type": "uint256"
        }
      ],
      "name": "getGuardians",
      "outputs": [
        {
          "internalType": "address[]",
          "name": "",
          "type": "address[]"
        }
      ],
      "stateMutability": "view",
      "type": "function"
    },
    {
      "inputs": [
        {
          "internalType": "address",
          "name": "user",
          "type": "address"
        }
      ],
      "name": "getReverseDomain",
      "outputs": [
        {
          "internalType": "string",
          "name": "",
          "type": "string"
        }
      ],
      "stateMutability": "view",
      "type": "function"
    },
    {
      "inputs": [
        {
          "internalType": "bytes32",
          "name": "role",
          "type": "bytes32"
        }
      ],
      "name": "getRoleAdmin",
      "outputs": [
        {
          "internalType": "bytes32",
          "name": "",
          "type": "bytes32"
        }
      ],
      "stateMutability": "view",
      "type": "function"
    },
    {
      "inputs": [
        {
          "internalType": "bytes32",
          "name": "role",
          "type": "bytes32"
        },
        {
          "internalType": "address",
          "name": "account",
          "type": "address"
        }
      ],
      "name": "grantRole",
      "outputs": [],
      "stateMutability": "nonpayable",
      "type": "function"
    },
    {
      "inputs": [
        {
          "internalType": "bytes32",
          "name": "role",
          "type": "bytes32"
        },
        {
          "internalType": "address",
          "name": "account",
          "type": "address"
        }
      ],
      "name": "hasRole",
      "outputs": [
        {
          "internalType": "bool",
          "name": "",
          "type": "bool"
        }
      ],
      "stateMutability": "view",
      "type": "function"
    },
    {
      "inputs": [
        {
          "internalType": "address[]",
          "name": "payees",
          "type": "address[]"
        },
        {
          "internalType": "uint256[]",
          "name": "shares_",
          "type": "uint256[]"
        }
      ],
      "name": "initialize",
      "outputs": [],
      "stateMutability": "nonpayable",
      "type": "function"
    },
    {
      "inputs": [
        {
          "internalType": "uint256",
          "name": "id",
          "type": "uint256"
        }
      ],
      "name": "initiateRecovery",
      "outputs": [],
      "stateMutability": "nonpayable",
      "type": "function"
    },
    {
      "inputs": [
        {
          "internalType": "address",
          "name": "owner",
          "type": "address"
        },
        {
          "internalType": "address",
          "name": "operator",
          "type": "address"
        }
      ],
      "name": "isApprovedForAll",
      "outputs": [
        {
          "internalType": "bool",
          "name": "",
          "type": "bool"
        }
      ],
      "stateMutability": "view",
      "type": "function"
    },
    {
      "inputs": [
        {
          "internalType": "uint256",
          "name": "rootId",
          "type": "uint256"
        },
        {
          "internalType": "string",
          "name": "sub",
          "type": "string"
        }
      ],
      "name": "mintSubdomain",
      "outputs": [],
      "stateMutability": "payable",
      "type": "function"
    },
    {
      "inputs": [],
      "name": "name",
      "outputs": [
        {
          "internalType": "string",
          "name": "",
          "type": "string"
        }
      ],
      "stateMutability": "view",
      "type": "function"
    },
    {
      "inputs": [],
      "name": "nextTokenId",
      "outputs": [
        {
          "internalType": "uint256",
          "name": "",
          "type": "uint256"
        }
      ],
      "stateMutability": "view",
      "type": "function"
    },
    {
      "inputs": [
        {
          "internalType": "uint256",
          "name": "tokenId",
          "type": "uint256"
        }
      ],
      "name": "ownerOf",
      "outputs": [
        {
          "internalType": "address",
          "name": "",
          "type": "address"
        }
      ],
      "stateMutability": "view",
      "type": "function"
    },
    {
      "inputs": [],
      "name": "paused",
      "outputs": [
        {
          "internalType": "bool",
          "name": "",
          "type": "bool"
        }
      ],
      "stateMutability": "view",
      "type": "function"
    },
    {
      "inputs": [
        {
          "internalType": "uint256",
          "name": "index",
          "type": "uint256"
        }
      ],
      "name": "payee",
      "outputs": [
        {
          "internalType": "address",
          "name": "",
          "type": "address"
        }
      ],
      "stateMutability": "view",
      "type": "function"
    },
    {
      "inputs": [],
      "name": "proxiableUUID",
      "outputs": [
        {
          "internalType": "bytes32",
          "name": "",
          "type": "bytes32"
        }
      ],
      "stateMutability": "view",
      "type": "function"
    },
    {
      "inputs": [
        {
          "internalType": "uint256",
          "name": "tokenId",
          "type": "uint256"
        },
        {
          "internalType": "uint8",
          "name": "feature",
          "type": "uint8"
        }
      ],
      "name": "purchaseFeature",
      "outputs": [],
      "stateMutability": "payable",
      "type": "function"
    },
    {
      "inputs": [
        {
          "internalType": "string",
          "name": "name",
          "type": "string"
        },
        {
          "internalType": "string",
          "name": "tld",
          "type": "string"
        },
        {
          "internalType": "uint256",
          "name": "mintFee",
          "type": "uint256"
        },
        {
          "internalType": "bool",
          "name": "feeEnabled",
          "type": "bool"
        },
        {
          "internalType": "uint256",
          "name": "duration",
          "type": "uint256"
        }
      ],
      "name": "registerDomain",
      "outputs": [],
      "stateMutability": "payable",
      "type": "function"
    },
    {
      "inputs": [
        {
          "internalType": "address",
          "name": "account",
          "type": "address"
        }
      ],
      "name": "releasable",
      "outputs": [
        {
          "internalType": "uint256",
          "name": "",
          "type": "uint256"
        }
      ],
      "stateMutability": "view",
      "type": "function"
    },
    {
      "inputs": [
        {
          "internalType": "contract IERC20Upgradeable",
          "name": "token",
          "type": "address"
        },
        {
          "internalType": "address",
          "name": "account",
          "type": "address"
        }
      ],
      "name": "releasable",
      "outputs": [
        {
          "internalType": "uint256",
          "name": "",
          "type": "uint256"
        }
      ],
      "stateMutability": "view",
      "type": "function"
    },
    {
      "inputs": [
        {
          "internalType": "address payable",
          "name": "account",
          "type": "address"
        }
      ],
      "name": "release",
      "outputs": [],
      "stateMutability": "nonpayable",
      "type": "function"
    },
    {
      "inputs": [
        {
          "internalType": "contract IERC20Upgradeable",
          "name": "token",
          "type": "address"
        },
        {
          "internalType": "address",
          "name": "account",
          "type": "address"
        }
      ],
      "name": "release",
      "outputs": [],
      "stateMutability": "nonpayable",
      "type": "function"
    },
    {
      "inputs": [
        {
          "internalType": "contract IERC20Upgradeable",
          "name": "token",
          "type": "address"
        },
        {
          "internalType": "address",
          "name": "account",
          "type": "address"
        }
      ],
      "name": "released",
      "outputs": [
        {
          "internalType": "uint256",
          "name": "",
          "type": "uint256"
        }
      ],
      "stateMutability": "view",
      "type": "function"
    },
    {
      "inputs": [
        {
          "internalType": "address",
          "name": "account",
          "type": "address"
        }
      ],
      "name": "released",
      "outputs": [
        {
          "internalType": "uint256",
          "name": "",
          "type": "uint256"
        }
      ],
      "stateMutability": "view",
      "type": "function"
    },
    {
      "inputs": [
        {
          "internalType": "uint256",
          "name": "id",
          "type": "uint256"
        },
        {
          "internalType": "address",
          "name": "account",
          "type": "address"
        }
      ],
      "name": "removeGuardian",
      "outputs": [],
      "stateMutability": "nonpayable",
      "type": "function"
    },
    {
      "inputs": [
        {
          "internalType": "uint256",
          "name": "id",
          "type": "uint256"
        },
        {
          "internalType": "uint256",
          "name": "duration",
          "type": "uint256"
        }
      ],
      "name": "renewDomain",
      "outputs": [],
      "stateMutability": "payable",
      "type": "function"
    },
    {
      "inputs": [],
      "name": "renewalPrice",
      "outputs": [
        {
          "internalType": "uint256",
          "name": "",
          "type": "uint256"
        }
      ],
      "stateMutability": "view",
      "type": "function"
    },
    {
      "inputs": [
        {
          "internalType": "bytes32",
          "name": "role",
          "type": "bytes32"
        },
        {
          "internalType": "address",
          "name": "account",
          "type": "address"
        }
      ],
      "name": "renounceRole",
      "outputs": [],
      "stateMutability": "nonpayable",
      "type": "function"
    },
    {
      "inputs": [
        {
          "internalType": "bytes32",
          "name": "role",
          "type": "bytes32"
        },
        {
          "internalType": "address",
          "name": "account",
          "type": "address"
        }
      ],
      "name": "revokeRole",
      "outputs": [],
      "stateMutability": "nonpayable",
      "type": "function"
    },
    {
      "inputs": [],
      "name": "royaltyBps",
      "outputs": [
        {
          "internalType": "uint256",
          "name": "",
          "type": "uint256"
        }
      ],
      "stateMutability": "view",
      "type": "function"
    },
    {
      "inputs": [
        {
          "internalType": "uint256",
          "name": "id",
          "type": "uint256"
        },
        {
          "internalType": "uint256",
          "name": "sale",
          "type": "uint256"
        }
      ],
      "name": "royaltyInfo",
      "outputs": [
        {
          "internalType": "address",
          "name": "",
          "type": "address"
        },
        {
          "internalType": "uint256",
          "name": "",
          "type": "uint256"
        }
      ],
      "stateMutability": "view",
      "type": "function"
    },
    {
      "inputs": [
        {
          "internalType": "address",
          "name": "from",
          "type": "address"
        },
        {
          "internalType": "address",
          "name": "to",
          "type": "address"
        },
        {
          "internalType": "uint256",
          "name": "tokenId",
          "type": "uint256"
        }
      ],
      "name": "safeTransferFrom",
      "outputs": [],
      "stateMutability": "nonpayable",
      "type": "function"
    },
    {
      "inputs": [
        {
          "internalType": "address",
          "name": "from",
          "type": "address"
        },
        {
          "internalType": "address",
          "name": "to",
          "type": "address"
        },
        {
          "internalType": "uint256",
          "name": "tokenId",
          "type": "uint256"
        },
        {
          "internalType": "bytes",
          "name": "data",
          "type": "bytes"
        }
      ],
      "name": "safeTransferFrom",
      "outputs": [],
      "stateMutability": "nonpayable",
      "type": "function"
    },
    {
      "inputs": [
        {
          "internalType": "address",
          "name": "operator",
          "type": "address"
        },
        {
          "internalType": "bool",
          "name": "approved",
          "type": "bool"
        }
      ],
      "name": "setApprovalForAll",
      "outputs": [],
      "stateMutability": "nonpayable",
      "type": "function"
    },
    {
      "inputs": [
        {
          "internalType": "address",
          "name": "newFeeCollector",
          "type": "address"
        }
      ],
      "name": "setFeeCollector",
      "outputs": [],
      "stateMutability": "nonpayable",
      "type": "function"
    },
    {
      "inputs": [
        {
          "internalType": "uint256",
          "name": "id",
          "type": "uint256"
        },
        {
          "internalType": "string",
          "name": "uri",
          "type": "string"
        }
      ],
      "name": "setProfileURI",
      "outputs": [],
      "stateMutability": "nonpayable",
      "type": "function"
    },
    {
      "inputs": [
        {
          "internalType": "uint256",
          "name": "tokenId",
          "type": "uint256"
        }
      ],
      "name": "setReverseRecord",
      "outputs": [],
      "stateMutability": "nonpayable",
      "type": "function"
    },
    {
      "inputs": [
        {
          "internalType": "uint256",
          "name": "bps",
          "type": "uint256"
        }
      ],
      "name": "setRoyaltyBps",
      "outputs": [],
      "stateMutability": "nonpayable",
      "type": "function"
    },
    {
      "inputs": [
        {
          "internalType": "address",
          "name": "account",
          "type": "address"
        }
      ],
      "name": "shares",
      "outputs": [
        {
          "internalType": "uint256",
          "name": "",
          "type": "uint256"
        }
      ],
      "stateMutability": "view",
      "type": "function"
    },
    {
      "inputs": [
        {
          "internalType": "bytes4",
          "name": "interfaceId",
          "type": "bytes4"
        }
      ],
      "name": "supportsInterface",
      "outputs": [
        {
          "internalType": "bool",
          "name": "",
          "type": "bool"
        }
      ],
      "stateMutability": "view",
      "type": "function"
    },
    {
      "inputs": [],
      "name": "symbol",
      "outputs": [
        {
          "internalType": "string",
          "name": "",
          "type": "string"
        }
      ],
      "stateMutability": "view",
      "type": "function"
    },
    {
      "inputs": [
        {
          "internalType": "uint256",
          "name": "tokenId",
          "type": "uint256"
        }
      ],
      "name": "tokenURI",
      "outputs": [
        {
          "internalType": "string",
          "name": "",
          "type": "string"
        }
      ],
      "stateMutability": "view",
      "type": "function"
    },
    {
      "inputs": [
        {
          "internalType": "contract IERC20Upgradeable",
          "name": "token",
          "type": "address"
        }
      ],
      "name": "totalReleased",
      "outputs": [
        {
          "internalType": "uint256",
          "name": "",
          "type": "uint256"
        }
      ],
      "stateMutability": "view",
      "type": "function"
    },
    {
      "inputs": [],
      "name": "totalReleased",
      "outputs": [
        {
          "internalType": "uint256",
          "name": "",
          "type": "uint256"
        }
      ],
      "stateMutability": "view",
      "type": "function"
    },
    {
      "inputs": [],
      "name": "totalShares",
      "outputs": [
        {
          "internalType": "uint256",
          "name": "",
          "type": "uint256"
        }
      ],
      "stateMutability": "view",
      "type": "function"
    },
    {
      "inputs": [
        {
          "internalType": "address",
          "name": "from",
          "type": "address"
        },
        {
          "internalType": "address",
          "name": "to",
          "type": "address"
        },
        {
          "internalType": "uint256",
          "name": "tokenId",
          "type": "uint256"
        }
      ],
      "name": "transferFrom",
      "outputs": [],
      "stateMutability": "nonpayable",
      "type": "function"
    },
    {
      "inputs": [
        {
          "internalType": "address",
          "name": "newImplementation",
          "type": "address"
        }
      ],
      "name": "upgradeTo",
      "outputs": [],
      "stateMutability": "nonpayable",
      "type": "function"
    },
    {
      "inputs": [
        {
          "internalType": "address",
          "name": "newImplementation",
          "type": "address"
        },
        {
          "internalType": "bytes",
          "name": "data",
          "type": "bytes"
        }
      ],
      "name": "upgradeToAndCall",
      "outputs": [],
      "stateMutability": "payable",
      "type": "function"
    },
    {
      "inputs": [
        {
          "internalType": "uint256",
          "name": "id",
          "type": "uint256"
        },
        {
          "internalType": "address",
          "name": "newOwner",
          "type": "address"
        },
        {
          "internalType": "bytes32[]",
          "name": "proof",
          "type": "bytes32[]"
        }
      ],
      "name": "verifyBridge",
      "outputs": [
        {
          "internalType": "bool",
          "name": "",
          "type": "bool"
        }
      ],
      "stateMutability": "view",
      "type": "function"
    },
    {
      "stateMutability": "payable",
      "type": "receive"
    }
  ],
  "bytecode": "0x60a0604052306080523480156012575f5ffd5b50608051615ab16100475f395f818161152901528181611569015281816117ad015281816117ed015261187a0152615ab15ff3fe6080604052600436106103b6575f3560e01c80637fbbe46f116101e9578063c45ac05011610108578063e33b7de31161009d578063e985e9c51161006d578063e985e9c514610ba8578063f04ab26e14610bef578063f6f1b6b014610c02578063f72c0d8b14610c21575f5ffd5b8063e33b7de314610b3e578063e43667c714610b53578063e4a0448b14610b82578063e9813e6414610b95575f5ffd5b8063ce7c2ac2116100d8578063ce7c2ac214610a96578063d547741f14610acb578063d79779b214610aea578063d8442c1114610b1f575f5ffd5b8063c45ac05014610a23578063c63adb2b14610a42578063c660ca2414610a58578063c87b56dd14610a77575f5ffd5b8063a217fddf1161017e578063b7af1b871161014e578063b7af1b8714610999578063b88d4fde146109b8578063c3dafbf0146109d7578063c415b95c14610a03575f5ffd5b8063a217fddf14610929578063a22cb4651461093c578063a3f8eace1461095b578063a42dce801461097a575f5ffd5b806395d89b41116101b957806395d89b41146108b95780639852595c146108cd5780639bb827cb14610902578063a0ce0c8a14610915575f5ffd5b80637fbbe46f1461083c57806381fea1c51461085b5780638b83209b1461087b57806391d148541461089a575f5ffd5b806336568abe116102d557806352d1902d1161026a57806370a082311161023a57806370a08231146107d157806375794a3c146107f057806375b238fc146108065780637b55297a14610826575f5ffd5b806352d1902d14610765578063571d6f34146107795780635c975abb1461079a5780636352211e146107b2575f5ffd5b8063406072a9116102a5578063406072a9146106cf57806342842e0e1461071457806348b75044146107335780634f1ef28614610752575f5ffd5b806336568abe1461065d5780633659cfe61461067c57806337f2c86f1461069b5780633a98ef39146106ba575f5ffd5b8063248a9ca31161034b5780632a1be5de1161031b5780632a1be5de146105c25780632a55205a146105e15780632ea715eb1461061f5780632f2ff15d1461063e575f5ffd5b8063248a9ca3146105335780632857a1e2146105705780632955b1731461058f5780632a1647f0146105a3575f5ffd5b8063095ea7b311610386578063095ea7b3146104b557806319165587146104d65780631f72d831146104f557806323b872dd14610514575f5ffd5b806301ffc9a7146104035780630638a19e1461043757806306fdde031461045d578063081812fc1461047e575f5ffd5b366103ff577f6ef95f06320e7a25a04a175ca677b7052bdd97131872c2192525a629f51be77033604080516001600160a01b0390921682523460208301520160405180910390a1005b5f5ffd5b34801561040e575f5ffd5b5061042261041d3660046147ee565b610c41565b60405190151581526020015b60405180910390f35b348015610442575f5ffd5b5061044b600481565b60405160ff909116815260200161042e565b348015610468575f5ffd5b50610471610c6b565b60405161042e9190614837565b348015610489575f5ffd5b5061049d610498366004614849565b610cfb565b6040516001600160a01b03909116815260200161042e565b3480156104c0575f5ffd5b506104d46104cf366004614874565b610d20565b005b3480156104e1575f5ffd5b506104d46104f036600461489e565b610e39565b348015610500575f5ffd5b506104d461050f366004614849565b610f1f565b34801561051f575f5ffd5b506104d461052e3660046148b9565b610f78565b34801561053e575f5ffd5b5061056261054d366004614849565b5f90815261015f602052604090206001015490565b60405190815260200161042e565b34801561057b575f5ffd5b5061042261058a3660046148f7565b610fa9565b34801561059a575f5ffd5b5061044b600281565b3480156105ae575f5ffd5b506104d46105bd366004614849565b61103e565b3480156105cd575f5ffd5b506104716105dc36600461489e565b611097565b3480156105ec575f5ffd5b506106006105fb36600461497d565b6113b1565b604080516001600160a01b03909316835260208301919091520161042e565b34801561062a575f5ffd5b506104d461063936600461499d565b611422565b348015610649575f5ffd5b506104d461065836600461499d565b61147c565b348015610668575f5ffd5b506104d461067736600461499d565b6114a1565b348015610687575f5ffd5b506104d461069636600461489e565b61151f565b3480156106a6575f5ffd5b506104d46106b536600461499d565b6115fc565b3480156106c5575f5ffd5b5061012d54610562565b3480156106da575f5ffd5b506105626106e93660046149cb565b6001600160a01b039182165f9081526101336020908152604080832093909416825291909152205490565b34801561071f575f5ffd5b506104d461072e3660046148b9565b611679565b34801561073e575f5ffd5b506104d461074d3660046149cb565b611693565b6104d4610760366004614aac565b6117a3565b348015610770575f5ffd5b5061056261186e565b348015610784575f5ffd5b506104d4335f9081526101cc6020526040812055565b3480156107a5575f5ffd5b506101915460ff16610422565b3480156107bd575f5ffd5b5061049d6107cc366004614849565b61191f565b3480156107dc575f5ffd5b506105626107eb36600461489e565b61197e565b3480156107fb575f5ffd5b506105626101c95481565b348015610811575f5ffd5b506105625f516020615a5c5f395f51905f5281565b348015610831575f5ffd5b506105626101ca5481565b348015610847575f5ffd5b506104d4610856366004614b84565b611a02565b348015610866575f5ffd5b506105625f51602061593f5f395f51905f5281565b348015610886575f5ffd5b5061049d610895366004614849565b611bf9565b3480156108a5575f5ffd5b506104226108b436600461499d565b611c28565b3480156108c4575f5ffd5b50610471611c53565b3480156108d8575f5ffd5b506105626108e736600461489e565b6001600160a01b03165f908152610130602052604090205490565b6104d461091036600461497d565b611c62565b348015610920575f5ffd5b5061044b600181565b348015610934575f5ffd5b506105625f81565b348015610947575f5ffd5b506104d4610956366004614c4a565b611d68565b348015610966575f5ffd5b5061056261097536600461489e565b611d73565b348015610985575f5ffd5b506104d461099436600461489e565b611dbb565b3480156109a4575f5ffd5b506104d46109b336600461497d565b611de9565b3480156109c3575f5ffd5b506104d46109d2366004614c76565b611ec2565b3480156109e2575f5ffd5b506109f66109f1366004614849565b611efa565b60405161042e9190614cdd565b348015610a0e575f5ffd5b506101ce5461049d906001600160a01b031681565b348015610a2e575f5ffd5b50610562610a3d3660046149cb565b611f14565b348015610a4d575f5ffd5b506105626101cb5481565b348015610a63575f5ffd5b506104d4610a72366004614d28565b611fd5565b348015610a82575f5ffd5b50610471610a91366004614849565b612016565b348015610aa1575f5ffd5b50610562610ab036600461489e565b6001600160a01b03165f90815261012f602052604090205490565b348015610ad6575f5ffd5b506104d4610ae536600461499d565b612021565b348015610af5575f5ffd5b50610562610b0436600461489e565b6001600160a01b03165f908152610132602052604090205490565b348015610b2a575f5ffd5b506104d4610b3936600461499d565b612046565b348015610b49575f5ffd5b5061012e54610562565b348015610b5e575f5ffd5b5061044b610b6d366004614849565b6101cd6020525f908152604090205460ff1681565b6104d4610b90366004614d55565b6120d3565b6104d4610ba3366004614d28565b612234565b348015610bb3575f5ffd5b50610422610bc23660046149cb565b6001600160a01b039182165f90815260ce6020908152604080832093909416825291909152205460ff1690565b6104d4610bfd366004614d7d565b61263b565b348015610c0d575f5ffd5b506104d4610c1c366004614849565b6128ec565b348015610c2c575f5ffd5b506105625f51602061591f5f395f51905f5281565b5f6001600160e01b0319821663152a902d60e11b1480610c655750610c658261296a565b92915050565b606060c98054610c7a90614e02565b80601f0160208091040260200160405190810160405280929190818152602001828054610ca690614e02565b8015610cf15780601f10610cc857610100808354040283529160200191610cf1565b820191905f5260205f20905b815481529060010190602001808311610cd457829003601f168201915b5050505050905090565b5f610d058261298e565b505f90815260cd60205260409020546001600160a01b031690565b5f610d2a8261191f565b9050806001600160a01b0316836001600160a01b031603610d9c5760405162461bcd60e51b815260206004820152602160248201527f4552433732313a20617070726f76616c20746f2063757272656e74206f776e656044820152603960f91b60648201526084015b60405180910390fd5b336001600160a01b0382161480610db85750610db88133610bc2565b610e2a5760405162461bcd60e51b815260206004820152603d60248201527f4552433732313a20617070726f76652063616c6c6572206973206e6f7420746f60448201527f6b656e206f776e6572206f7220617070726f76656420666f7220616c6c0000006064820152608401610d93565b610e3483836129de565b505050565b6001600160a01b0381165f90815261012f6020526040902054610e6e5760405162461bcd60e51b8152600401610d9390614e3a565b5f610e7882611d73565b9050805f03610e995760405162461bcd60e51b8152600401610d9390614e80565b8061012e5f828254610eab9190614edf565b90915550506001600160a01b0382165f90815261013060205260409020805482019055610ed88282612a4b565b604080516001600160a01b0384168152602081018390527fdf20fd1e76bc69d672e4814fafb2c449bba3a5369d8359adf9e05e6fde87b05691015b60405180910390a15050565b5f516020615a5c5f395f51905f52610f3681612b60565b6103e8821115610f715760405162461bcd60e51b81526020600482015260066024820152650302d313030360d41b6044820152606401610d93565b506101cb55565b610f823382612b6a565b610f9e5760405162461bcd60e51b8152600401610d9390614ef2565b610e34838383612be6565b6040516bffffffffffffffffffffffff19606085901b1660208201525f9081906034016040516020818303038152906040528051906020012090506110328484808060200260200160405190810160405280939291908181526020018383602002808284375f9201829052508b81526101c560205260409020600101549250859150612d489050565b9150505b949350505050565b6110483382612b6a565b6110855760405162461bcd60e51b815260206004820152600e60248201526d139bdd08185d5d1a1bdc9a5e995960921b6044820152606401610d93565b335f9081526101cc6020526040902055565b6001600160a01b0381165f9081526101cc60205260409020546060906110bc81612d5d565b6110d557505060408051602081019091525f8152919050565b5f8181526101c36020526040808220815161012081019092528054829082906110fd90614e02565b80601f016020809104026020016040519081016040528092919081815260200182805461112990614e02565b80156111745780601f1061114b57610100808354040283529160200191611174565b820191905f5260205f20905b81548152906001019060200180831161115757829003601f168201915b5050505050815260200160018201805461118d90614e02565b80601f01602080910402602001604051908101604052809291908181526020018280546111b990614e02565b80156112045780601f106111db57610100808354040283529160200191611204565b820191905f5260205f20905b8154815290600101906020018083116111e757829003601f168201915b5050505050815260200160028201805461121d90614e02565b80601f016020809104026020016040519081016040528092919081815260200182805461124990614e02565b80156112945780601f1061126b57610100808354040283529160200191611294565b820191905f5260205f20905b81548152906001019060200180831161127757829003601f168201915b505050505081526020016003820180546112ad90614e02565b80601f01602080910402602001604051908101604052809291908181526020018280546112d990614e02565b80156113245780601f106112fb57610100808354040283529160200191611324565b820191905f5260205f20905b81548152906001019060200180831161130757829003601f168201915b50505091835250506004820154602080830191909152600583015460408084019190915260069093015460ff808216151560608501526001600160401b036101008304166080850152600160481b90910416151560a09092019190915282518382015192519394506113999390929101614f56565b60405160208183030381529060405292505050919050565b5f5f6113bc84612d5d565b6113f25760405162461bcd60e51b81526020600482015260076024820152664d697373696e6760c81b6044820152606401610d93565b6113fb8461191f565b6127106101cb548561140d9190614f7e565b6114179190614f95565b915091509250929050565b61142c3383612b6a565b6114485760405162461bcd60e51b8152600401610d9390614fb4565b5f8281526101c7602052604090206114608183612d79565b610e345760405162461bcd60e51b8152600401610d9390614fd7565b5f82815261015f602052604090206001015461149781612b60565b610e348383612d8d565b6001600160a01b03811633146115115760405162461bcd60e51b815260206004820152602f60248201527f416363657373436f6e74726f6c3a2063616e206f6e6c792072656e6f756e636560448201526e103937b632b9903337b91039b2b63360891b6064820152608401610d93565b61151b8282612e13565b5050565b6001600160a01b037f00000000000000000000000000000000000000000000000000000000000000001630036115675760405162461bcd60e51b8152600401610d9390614ffd565b7f00000000000000000000000000000000000000000000000000000000000000006001600160a01b03166115af5f51602061595f5f395f51905f52546001600160a01b031690565b6001600160a01b0316146115d55760405162461bcd60e51b8152600401610d9390615049565b6115de81612e7a565b604080515f808252602082019092526115f991839190612e91565b50565b6116063383612b6a565b6116225760405162461bcd60e51b8152600401610d9390614fb4565b5f8281526101c76020526040902061163a8183612ffb565b610e345760405162461bcd60e51b815260206004820152601060248201526f20b63932b0b23c9033bab0b93234b0b760811b6044820152606401610d93565b610e3483838360405180602001604052805f815250611ec2565b6001600160a01b0381165f90815261012f60205260409020546116c85760405162461bcd60e51b8152600401610d9390614e3a565b5f6116d38383611f14565b9050805f036116f45760405162461bcd60e51b8152600401610d9390614e80565b6001600160a01b0383165f90815261013260205260408120805483929061171c908490614edf565b90915550506001600160a01b038084165f9081526101336020908152604080832093861683529290522080548201905561175783838361300f565b604080516001600160a01b038481168252602082018490528516917f3be5b7a71e84ed12875d241991c70855ac5817d847039e17a9d895c1ceb0f18a91015b60405180910390a2505050565b6001600160a01b037f00000000000000000000000000000000000000000000000000000000000000001630036117eb5760405162461bcd60e51b8152600401610d9390614ffd565b7f00000000000000000000000000000000000000000000000000000000000000006001600160a01b03166118335f51602061595f5f395f51905f52546001600160a01b031690565b6001600160a01b0316146118595760405162461bcd60e51b8152600401610d9390615049565b61186282612e7a565b61151b82826001612e91565b5f306001600160a01b037f0000000000000000000000000000000000000000000000000000000000000000161461190d5760405162461bcd60e51b815260206004820152603860248201527f555550535570677261646561626c653a206d757374206e6f742062652063616c60448201527f6c6564207468726f7567682064656c656761746563616c6c00000000000000006064820152608401610d93565b505f51602061595f5f395f51905f5290565b5f81815260cb60205260408120546001600160a01b031680610c655760405162461bcd60e51b8152602060048201526018602482015277115490cdcc8c4e881a5b9d985b1a59081d1bdad95b88125160421b6044820152606401610d93565b5f6001600160a01b0382166119e75760405162461bcd60e51b815260206004820152602960248201527f4552433732313a2061646472657373207a65726f206973206e6f7420612076616044820152683634b21037bbb732b960b91b6064820152608401610d93565b506001600160a01b03165f90815260cc602052604090205490565b5f54610100900460ff1615808015611a2057505f54600160ff909116105b80611a395750303b158015611a3957505f5460ff166001145b611a9c5760405162461bcd60e51b815260206004820152602e60248201527f496e697469616c697a61626c653a20636f6e747261637420697320616c72656160448201526d191e481a5b9a5d1a585b1a5e995960921b6064820152608401610d93565b5f805460ff191660011790558015611abd575f805461ff0019166101001790555b611b196040518060400160405280601781526020017f416c73616e696120456e68616e63656420446f6d61696e0000000000000000008152506040518060400160405280600381526020016210515160ea1b8152508585613061565b611b21613121565b611b2b5f33612d8d565b611b425f516020615a5c5f395f51905f5233612d8d565b611b595f51602061591f5f395f51905f5233612d8d565b611b705f51602061593f5f395f51905f5233612d8d565b60016101c955662386f26fc100006101ca556101f46101cb556101ce80546001600160a01b0319167378db155aa7f39a8d13a0e1e8eeb41d71e2ce3f431790558015610e34575f805461ff0019169055604051600181527f7f26b83ff96e1f2b6a682f133852f6798a09c465da95921460cefb38474024989060200160405180910390a1505050565b5f6101318281548110611c0e57611c0e615095565b5f918252602090912001546001600160a01b031692915050565b5f91825261015f602090815260408084206001600160a01b0393909316845291905290205460ff1690565b606060ca8054610c7a90614e02565b611c6c3383612b6a565b611c885760405162461bcd60e51b8152600401610d9390614fb4565b806101ca54611c979190614f7e565b341015611cd45760405162461bcd60e51b815260206004820152600b60248201526a131bddc81c185e5b595b9d60aa1b6044820152606401610d93565b5f8281526101c3602052604090206006018054829190600190611d0690849061010090046001600160401b03166150a9565b92506101000a8154816001600160401b0302191690836001600160401b03160217905550817fa3b231fbb516462c26b9b2de2c4ab9072ef38e6f324e8a0d3a5f28f420758d4c82604051611d5c91815260200190565b60405180910390a25050565b61151b338383613149565b5f5f611d7f61012e5490565b611d899047614edf565b9050611db48382611daf866001600160a01b03165f908152610130602052604090205490565b613216565b9392505050565b5f611dc581612b60565b506101ce80546001600160a01b0319166001600160a01b0392909216919091179055565b5f51602061593f5f395f51905f52611e0081612b60565b6040518060600160405280838152602001848442604051602001611e37939291909283526020830191909152604082015260600190565b60408051808303601f190181529181528151602092830120835242928201929092525f8681526101c582528281208451815584830151600180830191909155948401516002909101556101c68252829020805460ff19169093179092555183815284917f8c68541893e05b7b9989b6a645f3bd998284563900b988e90789c23cf4be6e619101611796565b611ecc3383612b6a565b611ee85760405162461bcd60e51b8152600401610d9390614ef2565b611ef484848484613255565b50505050565b5f8181526101c760205260409020606090610c6590613288565b6001600160a01b0382165f908152610132602052604081205481906040516370a0823160e01b81523060048201526001600160a01b038616906370a0823190602401602060405180830381865afa158015611f71573d5f5f3e3d5ffd5b505050506040513d601f19601f82011682018060405250810190611f9591906150c8565b611f9f9190614edf565b6001600160a01b038086165f90815261013360209081526040808320938816835292905220549091506110369084908390613216565b611fdf3383612b6a565b611ffb5760405162461bcd60e51b8152600401610d9390614fb4565b5f8281526101c360205260409020600201610e34828261512a565b6060610c6582613294565b5f82815261015f602052604090206001015461203c81612b60565b610e348383612e13565b5f8281526101c76020526040902061205e903361362c565b61207a5760405162461bcd60e51b8152600401610d9390614fd7565b5f8281526101c860205260409020544210156120c05760405162461bcd60e51b81526020600482015260056024820152642a34b6b2b960d91b6044820152606401610d93565b61151b6120cc8361191f565b8284612be6565b336120dd8361191f565b6001600160a01b0316146121265760405162461bcd60e51b815260206004820152601060248201526f2737ba103237b6b0b4b71037bbb732b960811b6044820152606401610d93565b5f8281526101cd6020526040902054811660ff16156121795760405162461bcd60e51b815260206004820152600f60248201526e105b1c9958591e48195b98589b1959608a1b6044820152606401610d93565b60031960ff82160161220c5766071afd498d00003410156121d35760405162461bcd60e51b8152602060048201526014602482015273125b9cdd59999a58da595b9d081c185e5b595b9d60621b6044820152606401610d93565b6101ce546040516001600160a01b03909116903480156108fc02915f818181858888f1935050505015801561220a573d5f5f3e3d5ffd5b505b5f9182526101cd6020526040909120805460ff19811660ff9182169190931617919091179055565b61223d82612d5d565b6122785760405162461bcd60e51b815260206004820152600c60248201526b526f6f74206d697373696e6760a01b6044820152606401610d93565b336122828361191f565b6001600160a01b0316146122c95760405162461bcd60e51b815260206004820152600e60248201526d2737ba103937b7ba1037bbb732b960911b6044820152606401610d93565b5f8281526101c36020526040902060060154426101009091046001600160401b0316116123275760405162461bcd60e51b815260206004820152600c60248201526b149bdbdd08195e1c1a5c995960a21b6044820152606401610d93565b5f8281526101c36020908152604080832090519092916123509185918591600183019101615252565b60405160208183030381529060405290506101c4816040516123729190615287565b9081526040519081900360200190205460ff16156123ba5760405162461bcd60e51b81526020600482015260056024820152642a30b5b2b760d91b6044820152606401610d93565b600682015460ff1615612426575f826004015460016123d99190614edf565b83600501546123e89190614f7e565b9050803410156124245760405162461bcd60e51b8152602060048201526007602482015266466565206c6f7760c81b6044820152606401610d93565b505b6101c980545f918261243783615292565b919050559050612447338261364d565b604051806101200160405280858152602001845f01856001016040516020016124719291906152aa565b60408051808303601f190181529181529082528051602080820183525f808352818501929092528251808201845282815284840152606084018290526080840182905260a08401829052600688015461010090046001600160401b031660c0850152600160e0909401939093528481526101c39092529020815181906124f7908261512a565b506020820151600182019061250c908261512a565b5060408201516002820190612521908261512a565b5060608201516003820190612536908261512a565b50608082015160048281019190915560a0830151600583015560c08301516006909201805460e08501516101009586015168ffffffffffffffffff1990921694151568ffffffffffffffff001916949094176001600160401b039094169094029290921760ff60481b1916600160481b9315159390930292909217905583018054905f6125c283615292565b919050555060016101c4836040516125da9190615287565b908152604051908190036020018120805492151560ff1990931692909217909155819086907f28ca53abb8635d6f9dd543b649b28874f078c0ef976a0c4213317f491f3942059061262c908690614837565b60405180910390a35050505050565b806101ca5461264a9190614f7e565b3410156126905760405162461bcd60e51b8152602060048201526014602482015273125b9cdd59999a58da595b9d081c185e5b595b9d60621b6044820152606401610d93565b5f85856040516020016126a4929190614f56565b60405160208183030381529060405290506101c4816040516126c69190615287565b9081526040519081900360200190205460ff161561270e5760405162461bcd60e51b81526020600482015260056024820152642a30b5b2b760d91b6044820152606401610d93565b6101c980545f918261271f83615292565b91905055905061272f338261364d565b60405180610120016040528088815260200187815260200160405180602001604052805f815250815260200160405180602001604052805f81525081526020015f81526020018681526020018515158152602001844261278f9190614edf565b6001600160401b031681525f60209182018190528381526101c390915260409020815181906127be908261512a565b50602082015160018201906127d3908261512a565b50604082015160028201906127e8908261512a565b50606082015160038201906127fd908261512a565b506080820151600482015560a0820151600582015560c08201516006909101805460e08401516101009485015168ffffffffffffffffff1990921693151568ffffffffffffffff001916939093176001600160401b039093169093029190911760ff60481b1916600160481b921515929092029190911790556040516001906101c49061288b908590615287565b908152604051908190036020018120805492151560ff199093169290921790915581907f1b796eeb3b31355358711e6a06a5952fa09407f3791fedd09d95f7edffa60b00906128db908590614837565b60405180910390a250505050505050565b5f8181526101c760205260409020612904903361362c565b6129205760405162461bcd60e51b8152600401610d9390614fd7565b61292d426203f480614edf565b5f8281526101c8602052604080822092909255905182917f2ff47beb1527c7e45468150f30e15635283717e00cdf2f73afd22bef1802343f91a250565b5f6001600160e01b0319821663152a902d60e11b1480610c655750610c6582613666565b61299781612d5d565b6115f95760405162461bcd60e51b8152602060048201526018602482015277115490cdcc8c4e881a5b9d985b1a59081d1bdad95b88125160421b6044820152606401610d93565b5f81815260cd6020526040902080546001600160a01b0319166001600160a01b0384169081179091558190612a128261191f565b6001600160a01b03167f8c5be1e5ebec7d5bd14f71427d1e84f3dd0314c0f7b2291e5b200ac8c7c3b92560405160405180910390a45050565b80471015612a9b5760405162461bcd60e51b815260206004820152601d60248201527f416464726573733a20696e73756666696369656e742062616c616e63650000006044820152606401610d93565b5f826001600160a01b0316826040515f6040518083038185875af1925050503d805f8114612ae4576040519150601f19603f3d011682016040523d82523d5f602084013e612ae9565b606091505b5050905080610e345760405162461bcd60e51b815260206004820152603a60248201527f416464726573733a20756e61626c6520746f2073656e642076616c75652c207260448201527f6563697069656e74206d617920686176652072657665727465640000000000006064820152608401610d93565b6115f98133613670565b5f5f612b758361191f565b9050806001600160a01b0316846001600160a01b03161480612bbb57506001600160a01b038082165f90815260ce602090815260408083209388168352929052205460ff165b806110365750836001600160a01b0316612bd484610cfb565b6001600160a01b031614949350505050565b826001600160a01b0316612bf98261191f565b6001600160a01b031614612c1f5760405162461bcd60e51b8152600401610d93906152c9565b6001600160a01b038216612c815760405162461bcd60e51b8152602060048201526024808201527f4552433732313a207472616e7366657220746f20746865207a65726f206164646044820152637265737360e01b6064820152608401610d93565b826001600160a01b0316612c948261191f565b6001600160a01b031614612cba5760405162461bcd60e51b8152600401610d93906152c9565b5f81815260cd6020908152604080832080546001600160a01b03199081169091556001600160a01b0387811680865260cc855283862080545f190190559087168086528386208054600101905586865260cb90945282852080549092168417909155905184937fddf252ad1be2c89b69c2b068fc378daa952ba7f163c4a11628f55a4df523b3ef91a4505050565b5f82612d5485846136c9565b14949350505050565b5f90815260cb60205260409020546001600160a01b0316151590565b5f611db4836001600160a01b03841661370b565b612d978282611c28565b61151b575f82815261015f602090815260408083206001600160a01b03851684529091529020805460ff19166001179055612dcf3390565b6001600160a01b0316816001600160a01b0316837f2f8788117e7eff1d82e926ec794901d17c78024a50270940304540a733656f0d60405160405180910390a45050565b612e1d8282611c28565b1561151b575f82815261015f602090815260408083206001600160a01b0385168085529252808320805460ff1916905551339285917ff6391f5c32d9c69d2a47ea670b442974b53935d1edc7fd64eb21e047a839171b9190a45050565b5f51602061591f5f395f51905f5261151b81612b60565b7f4910fdfa16fed3260ed0e7147f7cc6da11a60208b5b9406d12a635614ffd91435460ff1615612ec457610e34836137ee565b826001600160a01b03166352d1902d6040518163ffffffff1660e01b8152600401602060405180830381865afa925050508015612f1e575060408051601f3d908101601f19168201909252612f1b918101906150c8565b60015b612f815760405162461bcd60e51b815260206004820152602e60248201527f45524331393637557067726164653a206e657720696d706c656d656e7461746960448201526d6f6e206973206e6f74205555505360901b6064820152608401610d93565b5f51602061595f5f395f51905f528114612fef5760405162461bcd60e51b815260206004820152602960248201527f45524331393637557067726164653a20756e737570706f727465642070726f786044820152681a58589b195555525160ba1b6064820152608401610d93565b50610e34838383613889565b5f611db4836001600160a01b0384166138ad565b604080516001600160a01b038416602482015260448082018490528251808303909101815260649091019091526020810180516001600160e01b031663a9059cbb60e01b179052610e349084906138f9565b5f54610100900460ff166130875760405162461bcd60e51b8152600401610d939061530e565b61309184846139cc565b613099613121565b6130a1613121565b6130a96139fc565b6130b38282613a2a565b6130bd5f33612d8d565b6130d45f516020615a5c5f395f51905f5233612d8d565b6130eb5f51602061591f5f395f51905f5233612d8d565b6131025f51602061593f5f395f51905f5233612d8d565b505060016101c9555050662386f26fc100006101ca556101f46101cb55565b5f54610100900460ff166131475760405162461bcd60e51b8152600401610d939061530e565b565b816001600160a01b0316836001600160a01b0316036131aa5760405162461bcd60e51b815260206004820152601960248201527f4552433732313a20617070726f766520746f2063616c6c6572000000000000006044820152606401610d93565b6001600160a01b038381165f81815260ce6020908152604080832094871680845294825291829020805460ff191686151590811790915591519182527f17307eab39ab6107e8899845ad3d59bd9653f200f220920489ca2b5937696c31910160405180910390a3505050565b61012d546001600160a01b0384165f90815261012f6020526040812054909183916132419086614f7e565b61324b9190614f95565b6110369190615359565b613260848484612be6565b61326c84848484613a5a565b611ef45760405162461bcd60e51b8152600401610d939061536c565b60605f611db483613b54565b606061329f82612d5d565b6132d55760405162461bcd60e51b81526020600482015260076024820152664d697373696e6760c81b6044820152606401610d93565b5f8281526101c36020526040808220815161012081019092528054829082906132fd90614e02565b80601f016020809104026020016040519081016040528092919081815260200182805461332990614e02565b80156133745780601f1061334b57610100808354040283529160200191613374565b820191905f5260205f20905b81548152906001019060200180831161335757829003601f168201915b5050505050815260200160018201805461338d90614e02565b80601f01602080910402602001604051908101604052809291908181526020018280546133b990614e02565b80156134045780601f106133db57610100808354040283529160200191613404565b820191905f5260205f20905b8154815290600101906020018083116133e757829003601f168201915b5050505050815260200160028201805461341d90614e02565b80601f016020809104026020016040519081016040528092919081815260200182805461344990614e02565b80156134945780601f1061346b57610100808354040283529160200191613494565b820191905f5260205f20905b81548152906001019060200180831161347757829003601f168201915b505050505081526020016003820180546134ad90614e02565b80601f01602080910402602001604051908101604052809291908181526020018280546134d990614e02565b80156135245780601f106134fb57610100808354040283529160200191613524565b820191905f5260205f20905b81548152906001019060200180831161350757829003601f168201915b50505091835250506004820154602080830191909152600583015460408084019190915260069093015460ff808216151560608501526001600160401b036101008304166080850152600160481b90910416151560a09092019190915282518382015192519394505f9361359a93919201614f56565b60405160208183030381529060405290505f5f836060015151116135cc576135c782846101000151613bad565b6135d2565b82606001515b90505f6135ff83836040516020016135eb9291906153be565b604051602081830303815290604052613c53565b905080604051602001613612919061543b565b604051602081830303815290604052945050505050919050565b6001600160a01b0381165f9081526001830160205260408120541515611db4565b61151b828260405180602001604052805f815250613c79565b5f610c6582613cab565b61367a8282611c28565b61151b5761368781613ccf565b613692836020613ce1565b6040516020016136a392919061546c565b60408051601f198184030181529082905262461bcd60e51b8252610d9391600401614837565b5f81815b8451811015613703576136f9828683815181106136ec576136ec615095565b6020026020010151613e76565b91506001016136cd565b509392505050565b5f81815260018301602052604081205480156137e5575f61372d600183615359565b85549091505f9061374090600190615359565b905080821461379f575f865f01828154811061375e5761375e615095565b905f5260205f200154905080875f01848154811061377e5761377e615095565b5f918252602080832090910192909255918252600188019052604090208390555b85548690806137b0576137b06154c1565b600190038181905f5260205f20015f90559055856001015f8681526020019081526020015f205f905560019350505050610c65565b5f915050610c65565b6001600160a01b0381163b61385b5760405162461bcd60e51b815260206004820152602d60248201527f455243313936373a206e657720696d706c656d656e746174696f6e206973206e60448201526c1bdd08184818dbdb9d1c9858dd609a1b6064820152608401610d93565b5f51602061595f5f395f51905f5280546001600160a01b0319166001600160a01b0392909216919091179055565b61389283613ea2565b5f8251118061389e5750805b15610e3457611ef48383613ee1565b5f8181526001830160205260408120546138f257508154600181810184555f848152602080822090930184905584548482528286019093526040902091909155610c65565b505f610c65565b5f61394d826040518060400160405280602081526020017f5361666545524332303a206c6f772d6c6576656c2063616c6c206661696c6564815250856001600160a01b0316613f069092919063ffffffff16565b905080515f148061396d57508080602001905181019061396d91906154d5565b610e345760405162461bcd60e51b815260206004820152602a60248201527f5361666545524332303a204552433230206f7065726174696f6e20646964206e6044820152691bdd081cdd58d8d9595960b21b6064820152608401610d93565b5f54610100900460ff166139f25760405162461bcd60e51b8152600401610d939061530e565b61151b8282613f14565b5f54610100900460ff16613a225760405162461bcd60e51b8152600401610d939061530e565b613147613f53565b5f54610100900460ff16613a505760405162461bcd60e51b8152600401610d939061530e565b61151b8282613f86565b5f6001600160a01b0384163b15613b4c57604051630a85bd0160e11b81526001600160a01b0385169063150b7a0290613a9d9033908990889088906004016154f0565b6020604051808303815f875af1925050508015613ad7575060408051601f3d908101601f19168201909252613ad491810190615522565b60015b613b32573d808015613b04576040519150601f19603f3d011682016040523d82523d5f602084013e613b09565b606091505b5080515f03613b2a5760405162461bcd60e51b8152600401610d939061536c565b805181602001fd5b6001600160e01b031916630a85bd0160e11b149050611036565b506001611036565b6060815f01805480602002602001604051908101604052809291908181526020018280548015613ba157602002820191905f5260205f20905b815481526020019060010190808311613b8d575b50505050509050919050565b60605f82613bd3576040518060a00160405280607381526020016158ac60739139613bed565b6040518060a00160405280607681526020016159e6607691395b90505f613c27826040518060400160405280600781526020016608ccce51918c4d60ca1b815250876040516020016135eb9392919061553d565b905080604051602001613c3a9190615865565b6040516020818303038152906040529250505092915050565b6060610c658260405180606001604052806040815260200161597f6040913960016140b7565b613c838383614231565b613c8f5f848484613a5a565b610e345760405162461bcd60e51b8152600401610d939061536c565b5f6001600160e01b03198216637965db0b60e01b1480610c655750610c658261439d565b6060610c656001600160a01b03831660145b60605f613cef836002614f7e565b613cfa906002614edf565b6001600160401b03811115613d1157613d116149f7565b6040519080825280601f01601f191660200182016040528015613d3b576020820181803683370190505b509050600360fc1b815f81518110613d5557613d55615095565b60200101906001600160f81b03191690815f1a905350600f60fb1b81600181518110613d8357613d83615095565b60200101906001600160f81b03191690815f1a9053505f613da5846002614f7e565b613db0906001614edf565b90505b6001811115613e27576f181899199a1a9b1b9c1cb0b131b232b360811b85600f1660108110613de457613de4615095565b1a60f81b828281518110613dfa57613dfa615095565b60200101906001600160f81b03191690815f1a90535060049490941c93613e2081615896565b9050613db3565b508315611db45760405162461bcd60e51b815260206004820181905260248201527f537472696e67733a20686578206c656e67746820696e73756666696369656e746044820152606401610d93565b5f818310613e90575f828152602084905260409020611db4565b5f838152602083905260409020611db4565b613eab816137ee565b6040516001600160a01b038216907fbc7cd75a20ee27fd9adebab32041f755214dbc6bffa90cc0225b39da2e5c2d3b905f90a250565b6060611db483836040518060600160405280602781526020016159bf602791396143c1565b606061103684845f85614435565b5f54610100900460ff16613f3a5760405162461bcd60e51b8152600401610d939061530e565b60c9613f46838261512a565b5060ca610e34828261512a565b5f54610100900460ff16613f795760405162461bcd60e51b8152600401610d939061530e565b610191805460ff19169055565b5f54610100900460ff16613fac5760405162461bcd60e51b8152600401610d939061530e565b80518251146140185760405162461bcd60e51b815260206004820152603260248201527f5061796d656e7453706c69747465723a2070617965657320616e6420736861726044820152710cae640d8cadccee8d040dad2e6dac2e8c6d60731b6064820152608401610d93565b5f8251116140685760405162461bcd60e51b815260206004820152601a60248201527f5061796d656e7453706c69747465723a206e6f207061796565730000000000006044820152606401610d93565b5f5b8251811015610e34576140af83828151811061408857614088615095565b60200260200101518383815181106140a2576140a2615095565b602002602001015161450c565b60010161406a565b606083515f036140d5575060408051602081019091525f8152611db4565b5f82614105576003855160046140eb9190614f7e565b6140f6906002614edf565b6141009190614f95565b61412a565b6003855160026141159190614edf565b61411f9190614f95565b61412a906004614f7e565b90505f816001600160401b03811115614145576141456149f7565b6040519080825280601f01601f19166020018201604052801561416f576020820181803683370190505b509050600185016020820187885189016020810180515f82525b828410156141e4576003840193508351603f8160121c168701518653600186019550603f81600c1c168701518653600186019550603f8160061c168701518653600186019550603f8116870151865350600185019450614189565b90525050851561422557600388510660018114614208576002811461421b57614223565b603d6001830353603d6002830353614223565b603d60018303535b505b50909695505050505050565b6001600160a01b0382166142875760405162461bcd60e51b815260206004820181905260248201527f4552433732313a206d696e7420746f20746865207a65726f20616464726573736044820152606401610d93565b61429081612d5d565b156142dd5760405162461bcd60e51b815260206004820152601c60248201527f4552433732313a20746f6b656e20616c7265616479206d696e746564000000006044820152606401610d93565b6142e681612d5d565b156143335760405162461bcd60e51b815260206004820152601c60248201527f4552433732313a20746f6b656e20616c7265616479206d696e746564000000006044820152606401610d93565b6001600160a01b0382165f81815260cc602090815260408083208054600101905584835260cb90915280822080546001600160a01b0319168417905551839291907fddf252ad1be2c89b69c2b068fc378daa952ba7f163c4a11628f55a4df523b3ef908290a45050565b5f6001600160e01b03198216632483248360e11b1480610c655750610c65826146ed565b60605f5f856001600160a01b0316856040516143dd9190615287565b5f60405180830381855af49150503d805f8114614415576040519150601f19603f3d011682016040523d82523d5f602084013e61441a565b606091505b509150915061442b8683838761473c565b9695505050505050565b6060824710156144965760405162461bcd60e51b815260206004820152602660248201527f416464726573733a20696e73756666696369656e742062616c616e636520666f6044820152651c8818d85b1b60d21b6064820152608401610d93565b5f5f866001600160a01b031685876040516144b19190615287565b5f6040518083038185875af1925050503d805f81146144eb576040519150601f19603f3d011682016040523d82523d5f602084013e6144f0565b606091505b50915091506145018783838761473c565b979650505050505050565b6001600160a01b0382166145775760405162461bcd60e51b815260206004820152602c60248201527f5061796d656e7453706c69747465723a206163636f756e74206973207468652060448201526b7a65726f206164647265737360a01b6064820152608401610d93565b5f81116145c65760405162461bcd60e51b815260206004820152601d60248201527f5061796d656e7453706c69747465723a207368617265732061726520300000006044820152606401610d93565b6001600160a01b0382165f90815261012f6020526040902054156146405760405162461bcd60e51b815260206004820152602b60248201527f5061796d656e7453706c69747465723a206163636f756e7420616c726561647960448201526a206861732073686172657360a81b6064820152608401610d93565b6101318054600181019091557fbd987ad6ccdb7c7567f7335ea839f95dc944431abcf935b6924f70215963db730180546001600160a01b0319166001600160a01b0384169081179091555f90815261012f6020526040902081905561012d546146aa908290614edf565b61012d55604080516001600160a01b0384168152602081018390527f40c340f65e17194d14ddddb073d3c9f888e3cb52b5aae0c6c7706b4fbc905fac9101610f13565b5f6001600160e01b031982166380ac58cd60e01b148061471d57506001600160e01b03198216635b5e139f60e01b145b80610c6557506301ffc9a760e01b6001600160e01b0319831614610c65565b606083156147aa5782515f036147a3576001600160a01b0385163b6147a35760405162461bcd60e51b815260206004820152601d60248201527f416464726573733a2063616c6c20746f206e6f6e2d636f6e74726163740000006044820152606401610d93565b5081611036565b61103683838151156147bf5781518083602001fd5b8060405162461bcd60e51b8152600401610d939190614837565b6001600160e01b0319811681146115f9575f5ffd5b5f602082840312156147fe575f5ffd5b8135611db4816147d9565b5f81518084528060208401602086015e5f602082860101526020601f19601f83011685010191505092915050565b602081525f611db46020830184614809565b5f60208284031215614859575f5ffd5b5035919050565b6001600160a01b03811681146115f9575f5ffd5b5f5f60408385031215614885575f5ffd5b823561489081614860565b946020939093013593505050565b5f602082840312156148ae575f5ffd5b8135611db481614860565b5f5f5f606084860312156148cb575f5ffd5b83356148d681614860565b925060208401356148e681614860565b929592945050506040919091013590565b5f5f5f5f6060858703121561490a575f5ffd5b84359350602085013561491c81614860565b925060408501356001600160401b03811115614936575f5ffd5b8501601f81018713614946575f5ffd5b80356001600160401b0381111561495b575f5ffd5b8760208260051b840101111561496f575f5ffd5b949793965060200194505050565b5f5f6040838503121561498e575f5ffd5b50508035926020909101359150565b5f5f604083850312156149ae575f5ffd5b8235915060208301356149c081614860565b809150509250929050565b5f5f604083850312156149dc575f5ffd5b82356149e781614860565b915060208301356149c081614860565b634e487b7160e01b5f52604160045260245ffd5b604051601f8201601f191681016001600160401b0381118282101715614a3357614a336149f7565b604052919050565b5f82601f830112614a4a575f5ffd5b8135602083015f5f6001600160401b03841115614a6957614a696149f7565b50601f8301601f1916602001614a7e81614a0b565b915050828152858383011115614a92575f5ffd5b828260208301375f92810160200192909252509392505050565b5f5f60408385031215614abd575f5ffd5b8235614ac881614860565b915060208301356001600160401b03811115614ae2575f5ffd5b614aee85828601614a3b565b9150509250929050565b5f6001600160401b03821115614b1057614b106149f7565b5060051b60200190565b5f82601f830112614b29575f5ffd5b8135614b3c614b3782614af8565b614a0b565b8082825260208201915060208360051b860101925085831115614b5d575f5ffd5b602085015b83811015614b7a578035835260209283019201614b62565b5095945050505050565b5f5f60408385031215614b95575f5ffd5b82356001600160401b03811115614baa575f5ffd5b8301601f81018513614bba575f5ffd5b8035614bc8614b3782614af8565b8082825260208201915060208360051b850101925087831115614be9575f5ffd5b6020840193505b82841015614c14578335614c0381614860565b825260209384019390910190614bf0565b945050505060208301356001600160401b03811115614c31575f5ffd5b614aee85828601614b1a565b80151581146115f9575f5ffd5b5f5f60408385031215614c5b575f5ffd5b8235614c6681614860565b915060208301356149c081614c3d565b5f5f5f5f60808587031215614c89575f5ffd5b8435614c9481614860565b93506020850135614ca481614860565b92506040850135915060608501356001600160401b03811115614cc5575f5ffd5b614cd187828801614a3b565b91505092959194509250565b602080825282518282018190525f918401906040840190835b81811015614d1d5783516001600160a01b0316835260209384019390920191600101614cf6565b509095945050505050565b5f5f60408385031215614d39575f5ffd5b8235915060208301356001600160401b03811115614ae2575f5ffd5b5f5f60408385031215614d66575f5ffd5b82359150602083013560ff811681146149c0575f5ffd5b5f5f5f5f5f60a08688031215614d91575f5ffd5b85356001600160401b03811115614da6575f5ffd5b614db288828901614a3b565b95505060208601356001600160401b03811115614dcd575f5ffd5b614dd988828901614a3b565b945050604086013592506060860135614df181614c3d565b949793965091946080013592915050565b600181811c90821680614e1657607f821691505b602082108103614e3457634e487b7160e01b5f52602260045260245ffd5b50919050565b60208082526026908201527f5061796d656e7453706c69747465723a206163636f756e7420686173206e6f2060408201526573686172657360d01b606082015260800190565b6020808252602b908201527f5061796d656e7453706c69747465723a206163636f756e74206973206e6f742060408201526a191d59481c185e5b595b9d60aa1b606082015260800190565b634e487b7160e01b5f52601160045260245ffd5b80820180821115610c6557610c65614ecb565b6020808252602d908201527f4552433732313a2063616c6c6572206973206e6f7420746f6b656e206f776e6560408201526c1c881bdc88185c1c1c9bdd9959609a1b606082015260800190565b5f81518060208401855e5f93019283525090919050565b5f614f618285614f3f565b601760f91b8152614f756001820185614f3f565b95945050505050565b8082028115828204841417610c6557610c65614ecb565b5f82614faf57634e487b7160e01b5f52601260045260245ffd5b500490565b6020808252600990820152682737ba1037bbb732b960b91b604082015260600190565b6020808252600c908201526b2737ba1033bab0b93234b0b760a11b604082015260600190565b6020808252602c908201527f46756e6374696f6e206d7573742062652063616c6c6564207468726f7567682060408201526b19195b1959d85d1958d85b1b60a21b606082015260800190565b6020808252602c908201527f46756e6374696f6e206d7573742062652063616c6c6564207468726f7567682060408201526b6163746976652070726f787960a01b606082015260800190565b634e487b7160e01b5f52603260045260245ffd5b6001600160401b038181168382160190811115610c6557610c65614ecb565b5f602082840312156150d8575f5ffd5b5051919050565b601f821115610e3457805f5260205f20601f840160051c810160208510156151045750805b601f840160051c820191505b81811015615123575f8155600101615110565b5050505050565b81516001600160401b03811115615143576151436149f7565b615157816151518454614e02565b846150df565b6020601f821160018114615189575f83156151725750848201515b5f19600385901b1c1916600184901b178455615123565b5f84815260208120601f198516915b828110156151b85787850151825560209485019460019092019101615198565b50848210156151d557868401515f19600387901b60f8161c191681555b50505050600190811b01905550565b5f81546151f081614e02565b600182168015615207576001811461521c57615249565b60ff1983168652811515820286019350615249565b845f5260205f205f5b8381101561524157815488820152600190910190602001615225565b505081860193505b50505092915050565b5f61525d8286614f3f565b601760f91b815261527160018201866151e4565b9050601760f91b815261103260018201856151e4565b5f611db48284614f3f565b5f600182016152a3576152a3614ecb565b5060010190565b5f6152b582856151e4565b601760f91b8152614f7560018201856151e4565b60208082526025908201527f4552433732313a207472616e736665722066726f6d20696e636f72726563742060408201526437bbb732b960d91b606082015260800190565b6020808252602b908201527f496e697469616c697a61626c653a20636f6e7472616374206973206e6f74206960408201526a6e697469616c697a696e6760a81b606082015260800190565b81810381811115610c6557610c65614ecb565b60208082526032908201527f4552433732313a207472616e7366657220746f206e6f6e20455243373231526560408201527131b2b4bb32b91034b6b83632b6b2b73a32b960711b606082015260800190565b683d913730b6b2911d1160b91b81525f6153db6009830185614f3f565b7f222c226465736372697074696f6e223a22416c73616e696120456e68616e636581527232102237b6b0b4b711161134b6b0b3b2911d1160691b60208201526154276033820185614f3f565b61227d60f01b815260020195945050505050565b7f646174613a6170706c69636174696f6e2f6a736f6e3b6261736536342c00000081525f611db4601d830184614f3f565b7f416363657373436f6e74726f6c3a206163636f756e742000000000000000000081525f61549d6017830185614f3f565b7001034b99036b4b9b9b4b733903937b6329607d1b8152614f756011820185614f3f565b634e487b7160e01b5f52603160045260245ffd5b5f602082840312156154e5575f5ffd5b8151611db481614c3d565b6001600160a01b03858116825284166020820152604081018390526080606082018190525f9061442b90830184614809565b5f60208284031215615532575f5ffd5b8151611db4816147d9565b7f3c73766720786d6c6e733d22687474703a2f2f7777772e77332e6f72672f323081527f30302f737667222077696474683d2234303022206865696768743d22343030226020820152601f60f91b6040820152651e3232b3399f60d11b60418201527f3c7374796c653e40696d706f72742075726c282768747470733a2f2f666f6e7460478201527f732e676f6f676c65617069732e636f6d2f637373323f66616d696c793d50657260678201527f6d616e656e742b4d61726b657227293b3c2f7374796c653e000000000000000060878201527f3c66696c7465722069643d22676c6f772220783d222d3530252220793d222d35609f8201527f3025222077696474683d223230302522206865696768743d2232303025223e0060bf8201527f3c6665476175737369616e426c757220737464446576696174696f6e3d22322e60de820152711a91103932b9bab63a1e9131363ab911179f60711b60fe8201527f3c66654d657267653e3c66654d657267654e6f646520696e3d22626c7572222f6101108201527f3e3c66654d657267654e6f646520696e3d22536f7572636547726170686963226101308201526b179f1e17b332a6b2b933b29f60a11b6101508201525f61015c8201681e17b334b63a32b91f60b91b8152661e17b232b3399f60c91b60098201526c1e34b6b0b3b290343932b31e9160991b601082015261574a601d820187614f3f565b7f222077696474683d2234303022206865696768743d22343030222f3e0000000081527f3c7465787420783d223530252220793d223932252220746578742d616e63686f601c8201527f723d226d6964646c652220646f6d696e616e742d626173656c696e653d226d69603c8201526503232363291160d51b605c8201527f666f6e742d66616d696c793d225065726d616e656e74204d61726b657222206660628201527337b73a16b9b4bd329e91191a11103334b6361e9160611b6082820152905061581a6096820186614f3f565b7511103334b63a32b91e913ab9361411b3b637bb94911f60511b815290506158456016820185614f3f565b6c1e17ba32bc3a1f1e17b9bb339f60991b8152600d019695505050505050565b7f646174613a696d6167652f7376672b786d6c3b6261736536342c00000000000081525f611db4601a830184614f3f565b5f816158a4576158a4614ecb565b505f19019056fe68747470733a2f2f676174657761792e70696e6174612e636c6f75642f697066732f6261667962656962356a66353336626265377834346b6d6776786d366e6e746c78707a7565786735783773707a777a6936676671776d6b6b6a356d2f646f6d61696e5f6261636b67726f756e642e706e67189ab7a9244df0848122154315af71fe140f3db0fe014031783b0946b8c9d2e377eacfcb6207f26b72edc4f15c48e5518843e7e98ccfd7e0d6c16f92ed1fef8d360894a13ba1a3210667c828492db98dca3e2076cc3735a920a3ca505d382bbc4142434445464748494a4b4c4d4e4f505152535455565758595a6162636465666768696a6b6c6d6e6f707172737475767778797a303132333435363738392b2f416464726573733a206c6f772d6c6576656c2064656c65676174652063616c6c206661696c656468747470733a2f2f676174657761792e70696e6174612e636c6f75642f697066732f6261667962656962356a66353336626265377834346b6d6776786d366e6e746c78707a7565786735783773707a777a6936676671776d6b6b6a356d2f737562646f6d61696e5f6261636b67726f756e642e706e67a49807205ce4d355092ef5a8a18f56e8913cf4a201fbe287825b095693c21775a2646970667358221220a4f333d7b0e87f837c04daa5743d38363bb1e6ccbf9d00121810a4e4090dddea64736f6c634300081e0033",
  "linkReferences": {},
  "deployedLinkReferences": {}
}